{
  "_format": "hh-sol-artifact-1",
  "contractName": "RWAOracle",
  "sourceName": "contracts/RWAOracle.sol",
  "abi": [
    {
      "inputs": [
        {
          "internalType": "string",
          "name": "description",
          "type": "string"
        },
        {
          "internalType": "uint8",
          "name": "decimalsValue",
          "type": "uint8"
        },
        {
          "internalType": "int256",
          "name": "initialValue",
          "type": "int256"
        }
      ],
      "stateMutability": "nonpayable",
      "type": "constructor"
    },
    {
      "anonymous": false,
      "inputs": [
        {
          "indexed": true,
          "internalType": "address",
          "name": "previousOwner",
          "type": "address"
        },
        {
          "indexed": true,
          "internalType": "address",
          "name": "newOwner",
          "type": "address"
        }
      ],
      "name": "OwnershipTransferred",
      "type": "event"
    },
    {
      "inputs": [],
      "name": "decimals",
      "outputs": [
        {
          "internalType": "uint8",
          "name": "",
          "type": "uint8"
        }
      ],
      "stateMutability": "view",
      "type": "function"
    },
    {
      "inputs": [],
      "name": "description",
      "outputs": [
        {
          "internalType": "string",
          "name": "",
          "type": "string"
        }
      ],
      "stateMutability": "view",
      "type": "function"
    },
    {
      "inputs": [
        {
          "internalType": "uint80",
          "name": "_roundId",
          "type": "uint80"
        }
      ],
      "name": "getRoundData",
      "outputs": [
        {
          "internalType": "uint80",
          "name": "roundId",
          "type": "uint80"
        },
        {
          "internalType": "int256",
          "name": "answer",
          "type": "int256"
        },
        {
          "internalType": "uint256",
          "name": "startedAt",
          "type": "uint256"
        },
        {
          "internalType": "uint256",
          "name": "updatedAt",
          "type": "uint256"
        },
        {
          "internalType": "uint80",
          "name": "answeredInRound",
          "type": "uint80"
        }
      ],
      "stateMutability": "view",
      "type": "function"
    },
    {
      "inputs": [],
      "name": "latestRoundData",
      "outputs": [
        {
          "internalType": "uint80",
          "name": "roundId",
          "type": "uint80"
        },
        {
          "internalType": "int256",
          "name": "answer",
          "type": "int256"
        },
        {
          "internalType": "uint256",
          "name": "startedAt",
          "type": "uint256"
        },
        {
          "internalType": "uint256",
          "name": "updatedAt",
          "type": "uint256"
        },
        {
          "internalType": "uint80",
          "name": "answeredInRound",
          "type": "uint80"
        }
      ],
      "stateMutability": "view",
      "type": "function"
    },
    {
      "inputs": [],
      "name": "owner",
      "outputs": [
        {
          "internalType": "address",
          "name": "",
          "type": "address"
        }
      ],
      "stateMutability": "view",
      "type": "function"
    },
    {
      "inputs": [],
      "name": "renounceOwnership",
      "outputs": [],
      "stateMutability": "nonpayable",
      "type": "function"
    },
    {
      "inputs": [
        {
          "internalType": "address",
          "name": "newOwner",
          "type": "address"
        }
      ],
      "name": "transferOwnership",
      "outputs": [],
      "stateMutability": "nonpayable",
      "type": "function"
    },
    {
      "inputs": [
        {
          "internalType": "int256",
          "name": "newValue",
          "type": "int256"
        }
      ],
      "name": "updateValue",
      "outputs": [],
      "stateMutability": "nonpayable",
      "type": "function"
    },
    {
      "inputs": [],
      "name": "version",
      "outputs": [
        {
          "internalType": "uint256",
          "name": "",
          "type": "uint256"
        }
      ],
      "stateMutability": "pure",
      "type": "function"
    }
  ],
  "bytecode": "0x608060405234801561001057600080fd5b50604051620009263803806200092683398101604081905261003191610198565b61003a33610067565b60056100468482610304565b506004805460ff191660ff841617905561005f816100b7565b5050506103ff565b600080546001600160a01b038381166001600160a01b0319831681178455604051919092169283917f8be0079c531659141344cd1fd0a4f28419497f9722a3daafe3b4186f6b6457e09190a35050565b6100bf61010c565b6001819055600280546001600160501b03169060006100dd836103c3565b91906101000a8154816001600160501b0302191690836001600160501b03160217905550504260038190555050565b6000546001600160a01b0316331461016a5760405162461bcd60e51b815260206004820181905260248201527f4f776e61626c653a2063616c6c6572206973206e6f7420746865206f776e6572604482015260640160405180910390fd5b565b634e487b7160e01b600052604160045260246000fd5b805160ff8116811461019357600080fd5b919050565b6000806000606084860312156101ad57600080fd5b83516001600160401b03808211156101c457600080fd5b818601915086601f8301126101d857600080fd5b8151818111156101ea576101ea61016c565b604051601f8201601f19908116603f011681019083821181831017156102125761021261016c565b8160405282815260209350898484870101111561022e57600080fd5b600091505b828210156102505784820184015181830185015290830190610233565b6000848483010152809750505050610269818701610182565b93505050604084015190509250925092565b600181811c9082168061028f57607f821691505b6020821081036102af57634e487b7160e01b600052602260045260246000fd5b50919050565b601f8211156102ff57600081815260208120601f850160051c810160208610156102dc5750805b601f850160051c820191505b818110156102fb578281556001016102e8565b5050505b505050565b81516001600160401b0381111561031d5761031d61016c565b6103318161032b845461027b565b846102b5565b602080601f831160018114610366576000841561034e5750858301515b600019600386901b1c1916600185901b1785556102fb565b600085815260208120601f198616915b8281101561039557888601518255948401946001909101908401610376565b50858210156103b35787850151600019600388901b60f8161c191681555b5050505050600190811b01905550565b60006001600160501b038281166002600160501b031981016103f557634e487b7160e01b600052601160045260246000fd5b6001019392505050565b610517806200040f6000396000f3fe608060405234801561001057600080fd5b50600436106100935760003560e01c80637284e416116100665780637284e416146100de5780638da5cb5b146100f35780639a6fc8f51461010e578063f2fde38b14610161578063feaf968c1461017457600080fd5b8063313ce567146100985780634d362868146100b257806354fd4d50146100c7578063715018a6146100d6575b600080fd5b60045460405160ff90911681526020015b60405180910390f35b6100c56100c03660046103b3565b610190565b005b604051600181526020016100a9565b6100c56101e5565b6100e66101f9565b6040516100a991906103cc565b6000546040516001600160a01b0390911681526020016100a9565b61012d61011c36600461041a565b600154600354919290919081908490565b604080516001600160501b03968716815260208101959095528401929092526060830152909116608082015260a0016100a9565b6100c561016f36600461044a565b61028b565b6002546001546003546001600160501b0390921691808361012d565b610198610309565b6001819055600280546001600160501b03169060006101b683610473565b91906101000a8154816001600160501b0302191690836001600160501b03160217905550504260038190555050565b6101ed610309565b6101f76000610363565b565b606060058054610208906104a7565b80601f0160208091040260200160405190810160405280929190818152602001828054610234906104a7565b80156102815780601f1061025657610100808354040283529160200191610281565b820191906000526020600020905b81548152906001019060200180831161026457829003601f168201915b5050505050905090565b610293610309565b6001600160a01b0381166102fd5760405162461bcd60e51b815260206004820152602660248201527f4f776e61626c653a206e6577206f776e657220697320746865207a65726f206160448201526564647265737360d01b60648201526084015b60405180910390fd5b61030681610363565b50565b6000546001600160a01b031633146101f75760405162461bcd60e51b815260206004820181905260248201527f4f776e61626c653a2063616c6c6572206973206e6f7420746865206f776e657260448201526064016102f4565b600080546001600160a01b038381166001600160a01b0319831681178455604051919092169283917f8be0079c531659141344cd1fd0a4f28419497f9722a3daafe3b4186f6b6457e09190a35050565b6000602082840312156103c557600080fd5b5035919050565b600060208083528351808285015260005b818110156103f9578581018301518582016040015282016103dd565b506000604082860101526040601f19601f8301168501019250505092915050565b60006020828403121561042c57600080fd5b81356001600160501b038116811461044357600080fd5b9392505050565b60006020828403121561045c57600080fd5b81356001600160a01b038116811461044357600080fd5b60006001600160501b0380831681810361049d57634e487b7160e01b600052601160045260246000fd5b6001019392505050565b600181811c908216806104bb57607f821691505b6020821081036104db57634e487b7160e01b600052602260045260246000fd5b5091905056fea264697066735822122072e3557ec22c490e46b3122eddd3b3995afd7da91a2ffd9e5d836ca1f6e7401d64736f6c63430008140033",
  "linkReferences": {},
  "deployedLinkReferences": {}
}