{
  "_format": "hh-sol-artifact-1",
  "contractName": "UniqueAssetToken",
  "sourceName": "contracts/UniqueAssetToken.sol",
  "abi": [
    {
      "inputs": [],
      "stateMutability": "nonpayable",
      "type": "constructor"
    },
    {
      "inputs": [],
      "name": "AccessRegistryNotSet",
      "type": "error"
    },
    {
      "inputs": [],
      "name": "DefaultAdminError",
      "type": "error"
    },
    {
      "inputs": [
        {
          "internalType": "address",
          "name": "spender",
          "type": "address"
        },
        {
          "internalType": "uint256",
          "name": "allowance",
          "type": "uint256"
        },
        {
          "internalType": "uint256",
          "name": "needed",
          "type": "uint256"
        }
      ],
      "name": "ERC20InsufficientAllowance",
      "type": "error"
    },
    {
      "inputs": [
        {
          "internalType": "address",
          "name": "sender",
          "type": "address"
        },
        {
          "internalType": "uint256",
          "name": "balance",
          "type": "uint256"
        },
        {
          "internalType": "uint256",
          "name": "needed",
          "type": "uint256"
        }
      ],
      "name": "ERC20InsufficientBalance",
      "type": "error"
    },
    {
      "inputs": [
        {
          "internalType": "address",
          "name": "approver",
          "type": "address"
        }
      ],
      "name": "ERC20InvalidApprover",
      "type": "error"
    },
    {
      "inputs": [
        {
          "internalType": "address",
          "name": "receiver",
          "type": "address"
        }
      ],
      "name": "ERC20InvalidReceiver",
      "type": "error"
    },
    {
      "inputs": [
        {
          "internalType": "address",
          "name": "sender",
          "type": "address"
        }
      ],
      "name": "ERC20InvalidSender",
      "type": "error"
    },
    {
      "inputs": [
        {
          "internalType": "address",
          "name": "spender",
          "type": "address"
        }
      ],
      "name": "ERC20InvalidSpender",
      "type": "error"
    },
    {
      "inputs": [],
      "name": "InvalidAddress",
      "type": "error"
    },
    {
      "inputs": [],
      "name": "InvalidImplementation",
      "type": "error"
    },
    {
      "inputs": [
        {
          "internalType": "address",
          "name": "account",
          "type": "address"
        }
      ],
      "name": "RecoveryOnActiveAccount",
      "type": "error"
    },
    {
      "inputs": [],
      "name": "SalvageGasFailed",
      "type": "error"
    },
    {
      "inputs": [],
      "name": "ZeroAmount",
      "type": "error"
    },
    {
      "anonymous": false,
      "inputs": [
        {
          "indexed": true,
          "internalType": "address",
          "name": "caller",
          "type": "address"
        },
        {
          "indexed": true,
          "internalType": "address",
          "name": "oldAccessRegistry",
          "type": "address"
        },
        {
          "indexed": true,
          "internalType": "address",
          "name": "newAccessRegistry",
          "type": "address"
        }
      ],
      "name": "AccessRegistryUpdated",
      "type": "event"
    },
    {
      "anonymous": false,
      "inputs": [
        {
          "indexed": false,
          "internalType": "address",
          "name": "previousAdmin",
          "type": "address"
        },
        {
          "indexed": false,
          "internalType": "address",
          "name": "newAdmin",
          "type": "address"
        }
      ],
      "name": "AdminChanged",
      "type": "event"
    },
    {
      "anonymous": false,
      "inputs": [
        {
          "indexed": true,
          "internalType": "address",
          "name": "owner",
          "type": "address"
        },
        {
          "indexed": true,
          "internalType": "address",
          "name": "spender",
          "type": "address"
        },
        {
          "indexed": false,
          "internalType": "uint256",
          "name": "value",
          "type": "uint256"
        }
      ],
      "name": "Approval",
      "type": "event"
    },
    {
      "anonymous": false,
      "inputs": [
        {
          "indexed": true,
          "internalType": "address",
          "name": "beacon",
          "type": "address"
        }
      ],
      "name": "BeaconUpgraded",
      "type": "event"
    },
    {
      "anonymous": false,
      "inputs": [
        {
          "indexed": true,
          "internalType": "address",
          "name": "caller",
          "type": "address"
        },
        {
          "indexed": false,
          "internalType": "string",
          "name": "oldUri",
          "type": "string"
        },
        {
          "indexed": false,
          "internalType": "string",
          "name": "newUri",
          "type": "string"
        }
      ],
      "name": "ContractUriUpdated",
      "type": "event"
    },
    {
      "anonymous": false,
      "inputs": [],
      "name": "EIP712DomainChanged",
      "type": "event"
    },
    {
      "anonymous": false,
      "inputs": [
        {
          "indexed": true,
          "internalType": "address",
          "name": "caller",
          "type": "address"
        },
        {
          "indexed": true,
          "internalType": "uint256",
          "name": "amount",
          "type": "uint256"
        }
      ],
      "name": "GasTokenSalvaged",
      "type": "event"
    },
    {
      "anonymous": false,
      "inputs": [
        {
          "indexed": false,
          "internalType": "uint8",
          "name": "version",
          "type": "uint8"
        }
      ],
      "name": "Initialized",
      "type": "event"
    },
    {
      "anonymous": false,
      "inputs": [
        {
          "indexed": false,
          "internalType": "address",
          "name": "account",
          "type": "address"
        }
      ],
      "name": "Paused",
      "type": "event"
    },
    {
      "anonymous": false,
      "inputs": [
        {
          "indexed": true,
          "internalType": "bytes32",
          "name": "role",
          "type": "bytes32"
        },
        {
          "indexed": true,
          "internalType": "bytes32",
          "name": "previousAdminRole",
          "type": "bytes32"
        },
        {
          "indexed": true,
          "internalType": "bytes32",
          "name": "newAdminRole",
          "type": "bytes32"
        }
      ],
      "name": "RoleAdminChanged",
      "type": "event"
    },
    {
      "anonymous": false,
      "inputs": [
        {
          "indexed": true,
          "internalType": "bytes32",
          "name": "role",
          "type": "bytes32"
        },
        {
          "indexed": true,
          "internalType": "address",
          "name": "account",
          "type": "address"
        },
        {
          "indexed": true,
          "internalType": "address",
          "name": "sender",
          "type": "address"
        }
      ],
      "name": "RoleGranted",
      "type": "event"
    },
    {
      "anonymous": false,
      "inputs": [
        {
          "indexed": true,
          "internalType": "bytes32",
          "name": "role",
          "type": "bytes32"
        },
        {
          "indexed": true,
          "internalType": "address",
          "name": "account",
          "type": "address"
        },
        {
          "indexed": true,
          "internalType": "address",
          "name": "sender",
          "type": "address"
        }
      ],
      "name": "RoleRevoked",
      "type": "event"
    },
    {
      "anonymous": false,
      "inputs": [
        {
          "indexed": true,
          "internalType": "address",
          "name": "caller",
          "type": "address"
        },
        {
          "indexed": true,
          "internalType": "address",
          "name": "token",
          "type": "address"
        },
        {
          "indexed": true,
          "internalType": "uint256",
          "name": "amount",
          "type": "uint256"
        }
      ],
      "name": "TokenSalvaged",
      "type": "event"
    },
    {
      "anonymous": false,
      "inputs": [
        {
          "indexed": true,
          "internalType": "address",
          "name": "caller",
          "type": "address"
        },
        {
          "indexed": true,
          "internalType": "address",
          "name": "account",
          "type": "address"
        },
        {
          "indexed": false,
          "internalType": "uint256",
          "name": "amount",
          "type": "uint256"
        }
      ],
      "name": "TokensRecovered",
      "type": "event"
    },
    {
      "anonymous": false,
      "inputs": [
        {
          "indexed": true,
          "internalType": "address",
          "name": "from",
          "type": "address"
        },
        {
          "indexed": true,
          "internalType": "address",
          "name": "to",
          "type": "address"
        },
        {
          "indexed": false,
          "internalType": "uint256",
          "name": "value",
          "type": "uint256"
        }
      ],
      "name": "Transfer",
      "type": "event"
    },
    {
      "anonymous": false,
      "inputs": [
        {
          "indexed": false,
          "internalType": "address",
          "name": "account",
          "type": "address"
        }
      ],
      "name": "Unpaused",
      "type": "event"
    },
    {
      "anonymous": false,
      "inputs": [
        {
          "indexed": true,
          "internalType": "address",
          "name": "implementation",
          "type": "address"
        }
      ],
      "name": "Upgraded",
      "type": "event"
    },
    {
      "inputs": [],
      "name": "BURNER_ROLE",
      "outputs": [
        {
          "internalType": "bytes32",
          "name": "",
          "type": "bytes32"
        }
      ],
      "stateMutability": "view",
      "type": "function"
    },
    {
      "inputs": [],
      "name": "CONTRACT_ADMIN_ROLE",
      "outputs": [
        {
          "internalType": "bytes32",
          "name": "",
          "type": "bytes32"
        }
      ],
      "stateMutability": "view",
      "type": "function"
    },
    {
      "inputs": [],
      "name": "DEFAULT_ADMIN_ROLE",
      "outputs": [
        {
          "internalType": "bytes32",
          "name": "",
          "type": "bytes32"
        }
      ],
      "stateMutability": "view",
      "type": "function"
    },
    {
      "inputs": [],
      "name": "DOMAIN_SEPARATOR",
      "outputs": [
        {
          "internalType": "bytes32",
          "name": "",
          "type": "bytes32"
        }
      ],
      "stateMutability": "view",
      "type": "function"
    },
    {
      "inputs": [],
      "name": "MINTER_ROLE",
      "outputs": [
        {
          "internalType": "bytes32",
          "name": "",
          "type": "bytes32"
        }
      ],
      "stateMutability": "view",
      "type": "function"
    },
    {
      "inputs": [],
      "name": "PAUSER_ROLE",
      "outputs": [
        {
          "internalType": "bytes32",
          "name": "",
          "type": "bytes32"
        }
      ],
      "stateMutability": "view",
      "type": "function"
    },
    {
      "inputs": [],
      "name": "RECOVERY_ROLE",
      "outputs": [
        {
          "internalType": "bytes32",
          "name": "",
          "type": "bytes32"
        }
      ],
      "stateMutability": "view",
      "type": "function"
    },
    {
      "inputs": [],
      "name": "SALVAGE_ROLE",
      "outputs": [
        {
          "internalType": "bytes32",
          "name": "",
          "type": "bytes32"
        }
      ],
      "stateMutability": "view",
      "type": "function"
    },
    {
      "inputs": [],
      "name": "UPGRADER_ROLE",
      "outputs": [
        {
          "internalType": "bytes32",
          "name": "",
          "type": "bytes32"
        }
      ],
      "stateMutability": "view",
      "type": "function"
    },
    {
      "inputs": [],
      "name": "accessRegistry",
      "outputs": [
        {
          "internalType": "contract IAccessRegistry",
          "name": "",
          "type": "address"
        }
      ],
      "stateMutability": "view",
      "type": "function"
    },
    {
      "inputs": [
        {
          "internalType": "address",
          "name": "_accessRegistry",
          "type": "address"
        }
      ],
      "name": "accessRegistryUpdate",
      "outputs": [],
      "stateMutability": "nonpayable",
      "type": "function"
    },
    {
      "inputs": [
        {
          "internalType": "address",
          "name": "owner",
          "type": "address"
        },
        {
          "internalType": "address",
          "name": "spender",
          "type": "address"
        }
      ],
      "name": "allowance",
      "outputs": [
        {
          "internalType": "uint256",
          "name": "",
          "type": "uint256"
        }
      ],
      "stateMutability": "view",
      "type": "function"
    },
    {
      "inputs": [
        {
          "internalType": "address",
          "name": "spender",
          "type": "address"
        },
        {
          "internalType": "uint256",
          "name": "amount",
          "type": "uint256"
        }
      ],
      "name": "approve",
      "outputs": [
        {
          "internalType": "bool",
          "name": "",
          "type": "bool"
        }
      ],
      "stateMutability": "nonpayable",
      "type": "function"
    },
    {
      "inputs": [
        {
          "internalType": "address",
          "name": "account",
          "type": "address"
        }
      ],
      "name": "balanceOf",
      "outputs": [
        {
          "internalType": "uint256",
          "name": "",
          "type": "uint256"
        }
      ],
      "stateMutability": "view",
      "type": "function"
    },
    {
      "inputs": [
        {
          "internalType": "uint256",
          "name": "amount",
          "type": "uint256"
        }
      ],
      "name": "burn",
      "outputs": [],
      "stateMutability": "nonpayable",
      "type": "function"
    },
    {
      "inputs": [],
      "name": "contractUri",
      "outputs": [
        {
          "internalType": "string",
          "name": "",
          "type": "string"
        }
      ],
      "stateMutability": "view",
      "type": "function"
    },
    {
      "inputs": [
        {
          "internalType": "string",
          "name": "_uri",
          "type": "string"
        }
      ],
      "name": "contractUriUpdate",
      "outputs": [],
      "stateMutability": "nonpayable",
      "type": "function"
    },
    {
      "inputs": [],
      "name": "decimals",
      "outputs": [
        {
          "internalType": "uint8",
          "name": "",
          "type": "uint8"
        }
      ],
      "stateMutability": "view",
      "type": "function"
    },
    {
      "inputs": [
        {
          "internalType": "address",
          "name": "spender",
          "type": "address"
        },
        {
          "internalType": "uint256",
          "name": "subtractedValue",
          "type": "uint256"
        }
      ],
      "name": "decreaseAllowance",
      "outputs": [
        {
          "internalType": "bool",
          "name": "",
          "type": "bool"
        }
      ],
      "stateMutability": "nonpayable",
      "type": "function"
    },
    {
      "inputs": [],
      "name": "eip712Domain",
      "outputs": [
        {
          "internalType": "bytes1",
          "name": "fields",
          "type": "bytes1"
        },
        {
          "internalType": "string",
          "name": "name",
          "type": "string"
        },
        {
          "internalType": "string",
          "name": "version",
          "type": "string"
        },
        {
          "internalType": "uint256",
          "name": "chainId",
          "type": "uint256"
        },
        {
          "internalType": "address",
          "name": "verifyingContract",
          "type": "address"
        },
        {
          "internalType": "bytes32",
          "name": "salt",
          "type": "bytes32"
        },
        {
          "internalType": "uint256[]",
          "name": "extensions",
          "type": "uint256[]"
        }
      ],
      "stateMutability": "view",
      "type": "function"
    },
    {
      "inputs": [],
      "name": "getNAV",
      "outputs": [
        {
          "internalType": "int256",
          "name": "",
          "type": "int256"
        }
      ],
      "stateMutability": "view",
      "type": "function"
    },
    {
      "inputs": [],
      "name": "getProofOfReserve",
      "outputs": [
        {
          "internalType": "int256",
          "name": "",
          "type": "int256"
        }
      ],
      "stateMutability": "view",
      "type": "function"
    },
    {
      "inputs": [
        {
          "internalType": "bytes32",
          "name": "role",
          "type": "bytes32"
        }
      ],
      "name": "getRoleAdmin",
      "outputs": [
        {
          "internalType": "bytes32",
          "name": "",
          "type": "bytes32"
        }
      ],
      "stateMutability": "view",
      "type": "function"
    },
    {
      "inputs": [
        {
          "internalType": "bytes32",
          "name": "role",
          "type": "bytes32"
        },
        {
          "internalType": "address",
          "name": "account",
          "type": "address"
        }
      ],
      "name": "grantRole",
      "outputs": [],
      "stateMutability": "nonpayable",
      "type": "function"
    },
    {
      "inputs": [
        {
          "internalType": "bytes32",
          "name": "role",
          "type": "bytes32"
        },
        {
          "internalType": "address",
          "name": "account",
          "type": "address"
        }
      ],
      "name": "hasRole",
      "outputs": [
        {
          "internalType": "bool",
          "name": "",
          "type": "bool"
        }
      ],
      "stateMutability": "view",
      "type": "function"
    },
    {
      "inputs": [
        {
          "internalType": "address",
          "name": "spender",
          "type": "address"
        },
        {
          "internalType": "uint256",
          "name": "addedValue",
          "type": "uint256"
        }
      ],
      "name": "increaseAllowance",
      "outputs": [
        {
          "internalType": "bool",
          "name": "",
          "type": "bool"
        }
      ],
      "stateMutability": "nonpayable",
      "type": "function"
    },
    {
      "inputs": [
        {
          "internalType": "string",
          "name": "name",
          "type": "string"
        },
        {
          "internalType": "string",
          "name": "symbol",
          "type": "string"
        },
        {
          "internalType": "address",
          "name": "defaultAdmin",
          "type": "address"
        },
        {
          "internalType": "address",
          "name": "minter",
          "type": "address"
        },
        {
          "internalType": "address",
          "name": "pauser",
          "type": "address"
        },
        {
          "internalType": "address",
          "name": "navOracleAddress",
          "type": "address"
        },
        {
          "internalType": "address",
          "name": "porOracleAddress",
          "type": "address"
        }
      ],
      "name": "initialize",
      "outputs": [],
      "stateMutability": "nonpayable",
      "type": "function"
    },
    {
      "inputs": [
        {
          "internalType": "string",
          "name": "_name",
          "type": "string"
        },
        {
          "internalType": "string",
          "name": "_symbol",
          "type": "string"
        },
        {
          "internalType": "address",
          "name": "defaultAdmin",
          "type": "address"
        },
        {
          "internalType": "address",
          "name": "minter",
          "type": "address"
        },
        {
          "internalType": "address",
          "name": "pauser",
          "type": "address"
        }
      ],
      "name": "initialize",
      "outputs": [],
      "stateMutability": "nonpayable",
      "type": "function"
    },
    {
      "inputs": [
        {
          "internalType": "address",
          "name": "to",
          "type": "address"
        },
        {
          "internalType": "uint256",
          "name": "amount",
          "type": "uint256"
        }
      ],
      "name": "mint",
      "outputs": [],
      "stateMutability": "nonpayable",
      "type": "function"
    },
    {
      "inputs": [
        {
          "internalType": "bytes[]",
          "name": "data",
          "type": "bytes[]"
        }
      ],
      "name": "multicall",
      "outputs": [
        {
          "internalType": "bytes[]",
          "name": "results",
          "type": "bytes[]"
        }
      ],
      "stateMutability": "nonpayable",
      "type": "function"
    },
    {
      "inputs": [],
      "name": "name",
      "outputs": [
        {
          "internalType": "string",
          "name": "",
          "type": "string"
        }
      ],
      "stateMutability": "view",
      "type": "function"
    },
    {
      "inputs": [],
      "name": "navOracle",
      "outputs": [
        {
          "internalType": "contract AggregatorV3Interface",
          "name": "",
          "type": "address"
        }
      ],
      "stateMutability": "view",
      "type": "function"
    },
    {
      "inputs": [
        {
          "internalType": "address",
          "name": "owner",
          "type": "address"
        }
      ],
      "name": "nonces",
      "outputs": [
        {
          "internalType": "uint256",
          "name": "",
          "type": "uint256"
        }
      ],
      "stateMutability": "view",
      "type": "function"
    },
    {
      "inputs": [],
      "name": "pause",
      "outputs": [],
      "stateMutability": "nonpayable",
      "type": "function"
    },
    {
      "inputs": [],
      "name": "paused",
      "outputs": [
        {
          "internalType": "bool",
          "name": "",
          "type": "bool"
        }
      ],
      "stateMutability": "view",
      "type": "function"
    },
    {
      "inputs": [
        {
          "internalType": "address",
          "name": "owner",
          "type": "address"
        },
        {
          "internalType": "address",
          "name": "spender",
          "type": "address"
        },
        {
          "internalType": "uint256",
          "name": "value",
          "type": "uint256"
        },
        {
          "internalType": "uint256",
          "name": "deadline",
          "type": "uint256"
        },
        {
          "internalType": "uint8",
          "name": "v",
          "type": "uint8"
        },
        {
          "internalType": "bytes32",
          "name": "r",
          "type": "bytes32"
        },
        {
          "internalType": "bytes32",
          "name": "s",
          "type": "bytes32"
        }
      ],
      "name": "permit",
      "outputs": [],
      "stateMutability": "nonpayable",
      "type": "function"
    },
    {
      "inputs": [],
      "name": "porOracle",
      "outputs": [
        {
          "internalType": "contract AggregatorV3Interface",
          "name": "",
          "type": "address"
        }
      ],
      "stateMutability": "view",
      "type": "function"
    },
    {
      "inputs": [],
      "name": "proxiableUUID",
      "outputs": [
        {
          "internalType": "bytes32",
          "name": "",
          "type": "bytes32"
        }
      ],
      "stateMutability": "view",
      "type": "function"
    },
    {
      "inputs": [
        {
          "internalType": "address",
          "name": "account",
          "type": "address"
        },
        {
          "internalType": "uint256",
          "name": "amount",
          "type": "uint256"
        }
      ],
      "name": "recoverTokens",
      "outputs": [],
      "stateMutability": "nonpayable",
      "type": "function"
    },
    {
      "inputs": [
        {
          "internalType": "bytes32",
          "name": "role",
          "type": "bytes32"
        },
        {
          "internalType": "address",
          "name": "account",
          "type": "address"
        }
      ],
      "name": "renounceRole",
      "outputs": [],
      "stateMutability": "nonpayable",
      "type": "function"
    },
    {
      "inputs": [
        {
          "internalType": "bytes32",
          "name": "role",
          "type": "bytes32"
        },
        {
          "internalType": "address",
          "name": "account",
          "type": "address"
        }
      ],
      "name": "revokeRole",
      "outputs": [],
      "stateMutability": "nonpayable",
      "type": "function"
    },
    {
      "inputs": [
        {
          "internalType": "contract IERC20Upgradeable",
          "name": "token",
          "type": "address"
        },
        {
          "internalType": "uint256",
          "name": "amount",
          "type": "uint256"
        }
      ],
      "name": "salvageERC20",
      "outputs": [],
      "stateMutability": "nonpayable",
      "type": "function"
    },
    {
      "inputs": [
        {
          "internalType": "uint256",
          "name": "amount",
          "type": "uint256"
        }
      ],
      "name": "salvageGas",
      "outputs": [],
      "stateMutability": "nonpayable",
      "type": "function"
    },
    {
      "inputs": [
        {
          "internalType": "address",
          "name": "navOracleAddress",
          "type": "address"
        },
        {
          "internalType": "address",
          "name": "porOracleAddress",
          "type": "address"
        }
      ],
      "name": "setupOracles",
      "outputs": [],
      "stateMutability": "nonpayable",
      "type": "function"
    },
    {
      "inputs": [
        {
          "internalType": "bytes4",
          "name": "interfaceId",
          "type": "bytes4"
        }
      ],
      "name": "supportsInterface",
      "outputs": [
        {
          "internalType": "bool",
          "name": "",
          "type": "bool"
        }
      ],
      "stateMutability": "view",
      "type": "function"
    },
    {
      "inputs": [],
      "name": "symbol",
      "outputs": [
        {
          "internalType": "string",
          "name": "",
          "type": "string"
        }
      ],
      "stateMutability": "view",
      "type": "function"
    },
    {
      "inputs": [],
      "name": "totalSupply",
      "outputs": [
        {
          "internalType": "uint256",
          "name": "",
          "type": "uint256"
        }
      ],
      "stateMutability": "view",
      "type": "function"
    },
    {
      "inputs": [
        {
          "internalType": "address",
          "name": "to",
          "type": "address"
        },
        {
          "internalType": "uint256",
          "name": "amount",
          "type": "uint256"
        }
      ],
      "name": "transfer",
      "outputs": [
        {
          "internalType": "bool",
          "name": "",
          "type": "bool"
        }
      ],
      "stateMutability": "nonpayable",
      "type": "function"
    },
    {
      "inputs": [
        {
          "internalType": "address",
          "name": "from",
          "type": "address"
        },
        {
          "internalType": "address",
          "name": "to",
          "type": "address"
        },
        {
          "internalType": "uint256",
          "name": "amount",
          "type": "uint256"
        }
      ],
      "name": "transferFrom",
      "outputs": [
        {
          "internalType": "bool",
          "name": "",
          "type": "bool"
        }
      ],
      "stateMutability": "nonpayable",
      "type": "function"
    },
    {
      "inputs": [],
      "name": "unpause",
      "outputs": [],
      "stateMutability": "nonpayable",
      "type": "function"
    },
    {
      "inputs": [
        {
          "internalType": "address",
          "name": "newImplementation",
          "type": "address"
        }
      ],
      "name": "upgradeTo",
      "outputs": [],
      "stateMutability": "nonpayable",
      "type": "function"
    },
    {
      "inputs": [
        {
          "internalType": "address",
          "name": "newImplementation",
          "type": "address"
        },
        {
          "internalType": "bytes",
          "name": "data",
          "type": "bytes"
        }
      ],
      "name": "upgradeToAndCall",
      "outputs": [],
      "stateMutability": "payable",
      "type": "function"
    },
    {
      "inputs": [],
      "name": "version",
      "outputs": [
        {
          "internalType": "uint64",
          "name": "",
          "type": "uint64"
        }
      ],
      "stateMutability": "view",
      "type": "function"
    }
  ],
  "bytecode": "0x60a0604052306080523480156200001557600080fd5b506200002062000030565b6200002a62000030565b620000f1565b600054610100900460ff16156200009d5760405162461bcd60e51b815260206004820152602760248201527f496e697469616c697a61626c653a20636f6e747261637420697320696e697469604482015266616c697a696e6760c81b606482015260840160405180910390fd5b60005460ff90811614620000ef576000805460ff191660ff9081179091556040519081527f7f26b83ff96e1f2b6a682f133852f6798a09c465da95921460cefb38474024989060200160405180910390a15b565b6080516142d76200012960003960008181610ea801528181610ee80152818161104a0152818161108a015261111901526142d76000f3fe60806040526004361061031a5760003560e01c806354fd4d50116101ab578063a9059cbb116100f7578063d547741f11610095578063e63ab1e91161006f578063e63ab1e9146109a7578063e6f29b05146109db578063f6a02852146109fb578063f72c0d8b14610a1057600080fd5b8063d547741f14610947578063db0ed6a014610967578063dd62ed3e1461098757600080fd5b8063c3d00d4e116100d1578063c3d00d4e146108b3578063c91f0c53146108d3578063d505accf146108f3578063d53913931461091357600080fd5b8063a9059cbb14610851578063ac9650d814610871578063c0e24d5e1461089e57600080fd5b80638456cb591161016457806391d148541161013e57806391d14854146107e757806395d89b4114610807578063a217fddf1461081c578063a457c2d71461083157600080fd5b80638456cb591461077657806384b0196e1461078b57806388920d29146107b357600080fd5b806354fd4d50146106a55780635c975abb146106c75780636e1d21b0146106e057806370a08231146107005780637ecebe00146107365780637ffc5a5c1461075657600080fd5b8063313ce5671161026a578063395093511161022357806342966c68116101fd57806342966c681461063c57806349d4640d1461065c5780634f1ef2861461067d57806352d1902d1461069057600080fd5b806339509351146105e75780633f4ba83a1461060757806340c10f191461061c57600080fd5b8063313ce5671461050957806331993a1c1461052557806336443340146105595780633644e5151461059257806336568abe146105a75780633659cfe6146105c757600080fd5b806318160ddd116102d7578063248a9ca3116102b1578063248a9ca314610464578063282c51f3146104955780632e13ae6e146104c95780632f2ff15d146104e957600080fd5b806318160ddd146103fb5780631da033121461041057806323b872dd1461044457600080fd5b80630126c6061461031f57806301497e9a1461034757806301ffc9a714610369578063069c9fae1461039957806306fdde03146103b9578063095ea7b3146103db575b600080fd5b34801561032b57600080fd5b50610334610a44565b6040519081526020015b60405180910390f35b34801561035357600080fd5b506103676103623660046135a9565b610b14565b005b34801561037557600080fd5b506103896103843660046135e2565b610b50565b604051901515815260200161033e565b3480156103a557600080fd5b506103676103b436600461360c565b610bfa565b3480156103c557600080fd5b506103ce610d5d565b60405161033e9190613688565b3480156103e757600080fd5b506103896103f636600461360c565b610def565b34801561040757600080fd5b50603554610334565b34801561041c57600080fd5b506103347f2ce8d04a9c35987429af538825cd2438cc5c5bb5dc427955f84daaa3ea10501681565b34801561045057600080fd5b5061038961045f36600461369b565b610e0a565b34801561047057600080fd5b5061033461047f3660046136dc565b600090815261022a602052604090206001015490565b3480156104a157600080fd5b506103347f3c11d16cbaffd01df69ce1c404f6340ee057498f5f00246190ea54220576a84881565b3480156104d557600080fd5b506103676104e43660046136f5565b610e35565b3480156104f557600080fd5b50610367610504366004613712565b610e49565b34801561051557600080fd5b506040516012815260200161033e565b34801561053157600080fd5b506103347f0acf805600123ef007091da3b3ffb39474074c656c127aa68cb0ffec232a8ff881565b34801561056557600080fd5b506102f35461057a906001600160a01b031681565b6040516001600160a01b03909116815260200161033e565b34801561059e57600080fd5b50610334610e5f565b3480156105b357600080fd5b506103676105c2366004613712565b610e6e565b3480156105d357600080fd5b506103676105e23660046136f5565b610e9e565b3480156105f357600080fd5b5061038961060236600461360c565b610f7a565b34801561061357600080fd5b50610367610f8e565b34801561062857600080fd5b5061036761063736600461360c565b610fa0565b34801561064857600080fd5b506103676106573660046136dc565b610fdf565b34801561066857600080fd5b506102f25461057a906001600160a01b031681565b61036761068b3660046137c3565b611040565b34801561069c57600080fd5b5061033461110c565b3480156106b157600080fd5b5060005460405160ff909116815260200161033e565b3480156106d357600080fd5b506101945460ff16610389565b3480156106ec57600080fd5b506103676106fb3660046136dc565b6111bf565b34801561070c57600080fd5b5061033461071b3660046136f5565b6001600160a01b031660009081526033602052604090205490565b34801561074257600080fd5b506103346107513660046136f5565b61127e565b34801561076257600080fd5b50610367610771366004613827565b61129c565b34801561078257600080fd5b506103676112e3565b34801561079757600080fd5b506107a06112f3565b60405161033e9796959493929190613899565b3480156107bf57600080fd5b506103347f75afe8d9fedb4699bf07dc7bcb33fe609a84a99adfab7076931f0d93228085bb81565b3480156107f357600080fd5b50610389610802366004613712565b611391565b34801561081357600080fd5b506103ce6113bd565b34801561082857600080fd5b50610334600081565b34801561083d57600080fd5b5061038961084c36600461360c565b6113cc565b34801561085d57600080fd5b5061038961086c36600461360c565b6113e0565b34801561087d57600080fd5b5061089161088c36600461392f565b611400565b60405161033e9190613992565b3480156108aa57600080fd5b506103ce6114f5565b3480156108bf57600080fd5b506103676108ce36600461360c565b611584565b3480156108df57600080fd5b506103676108ee366004613a14565b6115f9565b3480156108ff57600080fd5b5061036761090e366004613ad7565b611728565b34801561091f57600080fd5b506103347f9f2df0fed2c77648de5860a4cc508cd0818c85b8b8a1ab4ceeef8d981c8956a681565b34801561095357600080fd5b50610367610962366004613712565b611748565b34801561097357600080fd5b50610367610982366004613b4e565b61178e565b34801561099357600080fd5b506103346109a23660046135a9565b61195e565b3480156109b357600080fd5b506103347f65d7a28e3265b37a6474929f336521b332c1681b933f6cb9f3376673440d862a81565b3480156109e757600080fd5b5060cc5461057a906001600160a01b031681565b348015610a0757600080fd5b50610334611989565b348015610a1c57600080fd5b506103347f189ab7a9244df0848122154315af71fe140f3db0fe014031783b0946b8c9d2e381565b6102f2546000906001600160a01b0316610a9a5760405162461bcd60e51b81526020600482015260126024820152711390558813dc9858db19481b9bdd081cd95d60721b60448201526064015b60405180910390fd5b6102f25460408051633fabe5a360e21b815290516000926001600160a01b03169163feaf968c9160048083019260a09291908290030181865afa158015610ae5573d6000803e3d6000fd5b505050506040513d601f19601f82011682018060405250810190610b099190613c0b565b509195945050505050565b6000610b1f81611a25565b506102f280546001600160a01b039384166001600160a01b0319918216179091556102f38054929093169116179055565b60006001600160e01b031982166336372b0760e01b1480610b8157506001600160e01b0319821663a219a02560e01b145b80610b9457506001600160e01b03198216155b80610baf57506001600160e01b031982166352d1902d60e01b145b80610bca57506001600160e01b03198216634ec7fbed60e11b145b80610be557506001600160e01b031982166342580cb760e11b145b80610bf45750610bf482611a2f565b92915050565b7f0acf805600123ef007091da3b3ffb39474074c656c127aa68cb0ffec232a8ff8610c2481611a25565b81600003610c4557604051631f2a200560e01b815260040160405180910390fd5b60cc546001600160a01b0316610c6e5760405163d582591b60e01b815260040160405180910390fd5b60cc546001600160a01b031663eefb7e9a84336000366040518563ffffffff1660e01b8152600401610ca39493929190613c5b565b602060405180830381865afa158015610cc0573d6000803e3d6000fd5b505050506040513d601f19601f82011682018060405250810190610ce49190613ca7565b15610d0d57604051636c480add60e01b81526001600160a01b0384166004820152602401610a91565b6040518281526001600160a01b0384169033907f401f439d865a766757ec78675925bd67198d5e78805aa41691b34b5d6a6cbbe69060200160405180910390a3610d58833384611a64565b505050565b606060368054610d6c90613cc9565b80601f0160208091040260200160405190810160405280929190818152602001828054610d9890613cc9565b8015610de55780601f10610dba57610100808354040283529160200191610de5565b820191906000526020600020905b815481529060010190602001808311610dc857829003601f168201915b5050505050905090565b6000610df9611c1c565b610e038383611c63565b9392505050565b6000610e17846001611c7b565b610e22836000611c7b565b610e2d848484611d54565b949350505050565b610e3d611d78565b610e4681611daa565b50565b610e51611eaa565b610e5b8282611eb2565b5050565b6000610e69611ed8565b905090565b81610e8c57604051630461f45f60e11b815260040160405180910390fd5b610e94611eaa565b610e5b8282611ee2565b6001600160a01b037f0000000000000000000000000000000000000000000000000000000000000000163003610ee65760405162461bcd60e51b8152600401610a9190613cfd565b7f00000000000000000000000000000000000000000000000000000000000000006001600160a01b0316610f2f60008051602061425b833981519152546001600160a01b031690565b6001600160a01b031614610f555760405162461bcd60e51b8152600401610a9190613d49565b610f5e81611f5c565b60408051600080825260208201909252610e4691839190611f86565b6000610f84611c1c565b610e0383836120f1565b610f96612113565b610f9e61213d565b565b7f9f2df0fed2c77648de5860a4cc508cd0818c85b8b8a1ab4ceeef8d981c8956a6610fca81611a25565b610fd5836000611c7b565b610d588383612190565b7f3c11d16cbaffd01df69ce1c404f6340ee057498f5f00246190ea54220576a84861100981611a25565b8160000361102a57604051631f2a200560e01b815260040160405180910390fd5b611036335b6001611c7b565b610e5b338361225d565b6001600160a01b037f00000000000000000000000000000000000000000000000000000000000000001630036110885760405162461bcd60e51b8152600401610a9190613cfd565b7f00000000000000000000000000000000000000000000000000000000000000006001600160a01b03166110d160008051602061425b833981519152546001600160a01b031690565b6001600160a01b0316146110f75760405162461bcd60e51b8152600401610a9190613d49565b61110082611f5c565b610e5b82826001611f86565b6000306001600160a01b037f000000000000000000000000000000000000000000000000000000000000000016146111ac5760405162461bcd60e51b815260206004820152603860248201527f555550535570677261646561626c653a206d757374206e6f742062652063616c60448201527f6c6564207468726f7567682064656c656761746563616c6c00000000000000006064820152608401610a91565b5060008051602061425b83398151915290565b806000036111e057604051631f2a200560e01b815260040160405180910390fd5b6111e861239d565b604051819033907f6fe86159012c6b167b88e7b30e7c8ebe172ed05c753231df050bf60e4faf724a90600090a3604051600090339083908381818185875af1925050503d8060008114611257576040519150601f19603f3d011682016040523d82523d6000602084013e61125c565b606091505b5050905080610e5b576040516382daa1e760e01b815260040160405180910390fd5b6001600160a01b038116600090815260996020526040812054610bf4565b6112a4611d78565b610e5b82828080601f0160208091040260200160405190810160405280939291908181526020018383808284376000920191909152506123cf92505050565b6112eb612113565b610f9e612421565b6000606080600080600060606065546000801b1480156113135750606654155b6113575760405162461bcd60e51b81526020600482015260156024820152741152540dcc4c8e88155b9a5b9a5d1a585b1a5e9959605a1b6044820152606401610a91565b61135f61245f565b61136761246e565b60408051600080825260208201909252600f60f81b9b939a50919850469750309650945092509050565b600091825261022a602090815260408084206001600160a01b0393909316845291905290205460ff1690565b606060378054610d6c90613cc9565b60006113d6611c1c565b610e03838361247d565b60006113eb3361102f565b6113f6836000611c7b565b610e0383836124f8565b60608167ffffffffffffffff81111561141b5761141b613737565b60405190808252806020026020018201604052801561144e57816020015b60608152602001906001900390816114395790505b50905060005b828110156114ee576114be3085858481811061147257611472613d95565b90506020028101906114849190613dab565b8080601f01602080910402602001604051908101604052809392919081815260200183838082843760009201919091525061250692505050565b8282815181106114d0576114d0613d95565b602002602001018190525080806114e690613e0f565b915050611454565b5092915050565b610162805461150390613cc9565b80601f016020809104026020016040519081016040528092919081815260200182805461152f90613cc9565b801561157c5780601f106115515761010080835404028352916020019161157c565b820191906000526020600020905b81548152906001019060200180831161155f57829003601f168201915b505050505081565b806000036115a557604051631f2a200560e01b815260040160405180910390fd5b6115ad61239d565b60405181906001600160a01b0384169033907fca9a684d22747bbed3bef704e16858bfa9ac8f5af2d80c70455b298bd7d8d23990600090a4610e5b6001600160a01b038316338361252b565b600054610100900460ff16158080156116195750600054600160ff909116105b806116335750303b158015611633575060005460ff166001145b61164f5760405162461bcd60e51b8152600401610a9190613e28565b6000805460ff191660011790558015611672576000805461ff0019166101001790555b61167f888888888861178e565b6102f280546001600160a01b038086166001600160a01b0319928316179092556102f38054928516929091169190911790556116d8336116bd601290565b6116c890600a613f5a565b6116d390600a613f69565b612190565b801561171e576000805461ff0019169055604051600181527f7f26b83ff96e1f2b6a682f133852f6798a09c465da95921460cefb38474024989060200160405180910390a15b5050505050505050565b611730611c1c565b61173f8787878787878761257d565b50505050505050565b8115801561175e57506001600160a01b03811633145b1561177c57604051630461f45f60e11b815260040160405180910390fd5b611784611eaa565b610e5b82826126e1565b600054610100900460ff16158080156117ae5750600054600160ff909116105b806117c85750303b1580156117c8575060005460ff166001145b6117e45760405162461bcd60e51b8152600401610a9190613e28565b6000805460ff191660011790558015611807576000805461ff0019166101001790555b6001600160a01b038416158061182457506001600160a01b038216155b8061183657506001600160a01b038316155b156118545760405163e6c4247b60e01b815260040160405180910390fd5b61185c612707565b611866868661272e565b61186f8661275f565b611877612707565b61188160006127a9565b611889612707565b6118a1604051806020016040528060008152506127d0565b6118a9612800565b6118b161282f565b6118bc60008561285e565b6118e67f9f2df0fed2c77648de5860a4cc508cd0818c85b8b8a1ab4ceeef8d981c8956a68461285e565b6119107f65d7a28e3265b37a6474929f336521b332c1681b933f6cb9f3376673440d862a8361285e565b8015611956576000805461ff0019169055604051600181527f7f26b83ff96e1f2b6a682f133852f6798a09c465da95921460cefb38474024989060200160405180910390a15b505050505050565b6001600160a01b03918216600090815260346020908152604080832093909416825291909152205490565b6102f3546000906001600160a01b03166119da5760405162461bcd60e51b8152602060048201526012602482015271141bd48813dc9858db19481b9bdd081cd95d60721b6044820152606401610a91565b6102f35460408051633fabe5a360e21b815290516000926001600160a01b03169163feaf968c9160048083019260a09291908290030181865afa158015610ae5573d6000803e3d6000fd5b610e4681336128e5565b60006001600160e01b03198216637965db0b60e01b1480610bf457506301ffc9a760e01b6001600160e01b0319831614610bf4565b6001600160a01b038316611ac85760405162461bcd60e51b815260206004820152602560248201527f45524332303a207472616e736665722066726f6d20746865207a65726f206164604482015264647265737360d81b6064820152608401610a91565b6001600160a01b038216611b2a5760405162461bcd60e51b815260206004820152602360248201527f45524332303a207472616e7366657220746f20746865207a65726f206164647260448201526265737360e81b6064820152608401610a91565b611b3583838361293e565b6001600160a01b03831660009081526033602052604090205481811015611bad5760405162461bcd60e51b815260206004820152602660248201527f45524332303a207472616e7366657220616d6f756e7420657863656564732062604482015265616c616e636560d01b6064820152608401610a91565b6001600160a01b0380851660008181526033602052604080822086860390559286168082529083902080548601905591517fddf252ad1be2c89b69c2b068fc378daa952ba7f163c4a11628f55a4df523b3ef90611c0d9086815260200190565b60405180910390a35b50505050565b6101945460ff1615610f9e5760405162461bcd60e51b815260206004820152601060248201526f14185d5cd8589b194e881c185d5cd95960821b6044820152606401610a91565b600033611c71818585612946565b5060019392505050565b60cc546001600160a01b031615610e5b5760cc546001600160a01b031663eefb7e9a83336000366040518563ffffffff1660e01b8152600401611cc19493929190613c5b565b602060405180830381865afa158015611cde573d6000803e3d6000fd5b505050506040513d601f19601f82011682018060405250810190611d029190613ca7565b610e5b578015611d3057604051634b637e8f60e11b81526001600160a01b0383166004820152602401610a91565b60405163ec442f0560e01b81526001600160a01b0383166004820152602401610a91565b600033611d62858285612a6a565b611d6d858585611a64565b506001949350505050565b611d80611c1c565b7f2ce8d04a9c35987429af538825cd2438cc5c5bb5dc427955f84daaa3ea105016610e4681611a25565b6001600160a01b03811615801590611e2e57506040516301ffc9a760e01b815263777dbf4d60e11b60048201526001600160a01b038216906301ffc9a790602401602060405180830381865afa158015611e08573d6000803e3d6000fd5b505050506040513d601f19601f82011682018060405250810190611e2c9190613ca7565b155b15611e4c5760405163340aafcd60e11b815260040160405180910390fd5b60cc546040516001600160a01b0383811692169033907ff30d5b081b4a3016a4b34d3732b94b2b2ccc2d99f6774c8ac47c42d8764fd26590600090a460cc80546001600160a01b0319166001600160a01b0392909216919091179055565b610f9e611c1c565b600082815261022a6020526040902060010154611ece81611a25565b610d58838361285e565b6000610e69612ade565b6001600160a01b0381163314611f525760405162461bcd60e51b815260206004820152602f60248201527f416363657373436f6e74726f6c3a2063616e206f6e6c792072656e6f756e636560448201526e103937b632b9903337b91039b2b63360891b6064820152608401610a91565b610e5b8282612b52565b7f189ab7a9244df0848122154315af71fe140f3db0fe014031783b0946b8c9d2e3610e5b81611a25565b7f4910fdfa16fed3260ed0e7147f7cc6da11a60208b5b9406d12a635614ffd91435460ff1615611fb957610d5883612bba565b826001600160a01b03166352d1902d6040518163ffffffff1660e01b8152600401602060405180830381865afa925050508015612013575060408051601f3d908101601f1916820190925261201091810190613f80565b60015b6120765760405162461bcd60e51b815260206004820152602e60248201527f45524331393637557067726164653a206e657720696d706c656d656e7461746960448201526d6f6e206973206e6f74205555505360901b6064820152608401610a91565b60008051602061425b83398151915281146120e55760405162461bcd60e51b815260206004820152602960248201527f45524331393637557067726164653a20756e737570706f727465642070726f786044820152681a58589b195555525160ba1b6064820152608401610a91565b50610d58838383612c56565b600033611c71818585612104838361195e565b61210e9190613f99565b612946565b7f65d7a28e3265b37a6474929f336521b332c1681b933f6cb9f3376673440d862a610e4681611a25565b612145612c7b565b610194805460ff191690557f5db9ee0a495bf2e6ff9c91a7834c1ba4fdd244a5e8aa4e537bd38aeae4b073aa335b6040516001600160a01b03909116815260200160405180910390a1565b6001600160a01b0382166121e65760405162461bcd60e51b815260206004820152601f60248201527f45524332303a206d696e7420746f20746865207a65726f2061646472657373006044820152606401610a91565b6121f26000838361293e565b80603560008282546122049190613f99565b90915550506001600160a01b0382166000818152603360209081526040808320805486019055518481527fddf252ad1be2c89b69c2b068fc378daa952ba7f163c4a11628f55a4df523b3ef910160405180910390a35050565b6001600160a01b0382166122bd5760405162461bcd60e51b815260206004820152602160248201527f45524332303a206275726e2066726f6d20746865207a65726f206164647265736044820152607360f81b6064820152608401610a91565b6122c98260008361293e565b6001600160a01b0382166000908152603360205260409020548181101561233d5760405162461bcd60e51b815260206004820152602260248201527f45524332303a206275726e20616d6f756e7420657863656564732062616c616e604482015261636560f01b6064820152608401610a91565b6001600160a01b03831660008181526033602090815260408083208686039055603580548790039055518581529192917fddf252ad1be2c89b69c2b068fc378daa952ba7f163c4a11628f55a4df523b3ef910160405180910390a3505050565b6123a5611c1c565b7f75afe8d9fedb4699bf07dc7bcb33fe609a84a99adfab7076931f0d93228085bb610e4681611a25565b336001600160a01b03167fe41f7f53dffb3e1410dab0f9f6a27c670b48ad40ccc47a64537100e1f3809e8a6101628360405161240c929190613fac565b60405180910390a2610162610e5b8282614091565b612429611c1c565b610194805460ff191660011790557f62e78cea01bee320cd4e420270b5ea74000d11b0c9f74754ebdbfc544b05a2586121733390565b606060678054610d6c90613cc9565b606060688054610d6c90613cc9565b6000338161248b828661195e565b9050838110156124eb5760405162461bcd60e51b815260206004820152602560248201527f45524332303a2064656372656173656420616c6c6f77616e63652062656c6f77604482015264207a65726f60d81b6064820152608401610a91565b611d6d8286868403612946565b600033611c71818585611a64565b6060610e03838360405180606001604052806027815260200161427b60279139612cc5565b604080516001600160a01b038416602482015260448082018490528251808303909101815260649091019091526020810180516001600160e01b031663a9059cbb60e01b179052610d58908490612d3d565b834211156125cd5760405162461bcd60e51b815260206004820152601d60248201527f45524332305065726d69743a206578706972656420646561646c696e650000006044820152606401610a91565b60007f6e71edae12b1b97f4d1f60370fef10105fa2faae0126114a169c64845d6126c98888886125fc8c612e12565b6040805160208101969096526001600160a01b0394851690860152929091166060840152608083015260a082015260c0810186905260e001604051602081830303815290604052805190602001209050600061265782612e3a565b9050600061266782878787612e67565b9050896001600160a01b0316816001600160a01b0316146126ca5760405162461bcd60e51b815260206004820152601e60248201527f45524332305065726d69743a20696e76616c6964207369676e617475726500006044820152606401610a91565b6126d58a8a8a612946565b50505050505050505050565b600082815261022a60205260409020600101546126fd81611a25565b610d588383612b52565b600054610100900460ff16610f9e5760405162461bcd60e51b8152600401610a9190614151565b600054610100900460ff166127555760405162461bcd60e51b8152600401610a9190614151565b610e5b8282612e8f565b600054610100900460ff166127865760405162461bcd60e51b8152600401610a9190614151565b610e4681604051806040016040528060018152602001603160f81b815250612ecf565b600054610100900460ff16610e3d5760405162461bcd60e51b8152600401610a9190614151565b600054610100900460ff166127f75760405162461bcd60e51b8152600401610a9190614151565b610e46816123cf565b600054610100900460ff166128275760405162461bcd60e51b8152600401610a9190614151565b610f9e612f1e565b600054610100900460ff166128565760405162461bcd60e51b8152600401610a9190614151565b610f9e612707565b6128688282611391565b610e5b57600082815261022a602090815260408083206001600160a01b03851684529091529020805460ff191660011790556128a13390565b6001600160a01b0316816001600160a01b0316837f2f8788117e7eff1d82e926ec794901d17c78024a50270940304540a733656f0d60405160405180910390a45050565b6128ef8282611391565b610e5b576128fc81612f4d565b612907836020612f5f565b60405160200161291892919061419c565b60408051601f198184030181529082905262461bcd60e51b8252610a9191600401613688565b610d58611c1c565b6001600160a01b0383166129a85760405162461bcd60e51b8152602060048201526024808201527f45524332303a20617070726f76652066726f6d20746865207a65726f206164646044820152637265737360e01b6064820152608401610a91565b6001600160a01b038216612a095760405162461bcd60e51b815260206004820152602260248201527f45524332303a20617070726f766520746f20746865207a65726f206164647265604482015261737360f01b6064820152608401610a91565b6001600160a01b0383811660008181526034602090815260408083209487168084529482529182902085905590518481527f8c5be1e5ebec7d5bd14f71427d1e84f3dd0314c0f7b2291e5b200ac8c7c3b925910160405180910390a3505050565b6000612a76848461195e565b90506000198114611c165781811015612ad15760405162461bcd60e51b815260206004820152601d60248201527f45524332303a20696e73756666696369656e7420616c6c6f77616e63650000006044820152606401610a91565b611c168484848403612946565b60007f8b73c3c69bb8fe3d512ecc4cf759cc79239f7b179b0ffacaa9a75d522b39400f612b096130fb565b612b11613154565b60408051602081019490945283019190915260608201524660808201523060a082015260c00160405160208183030381529060405280519060200120905090565b612b5c8282611391565b15610e5b57600082815261022a602090815260408083206001600160a01b0385168085529252808320805460ff1916905551339285917ff6391f5c32d9c69d2a47ea670b442974b53935d1edc7fd64eb21e047a839171b9190a45050565b6001600160a01b0381163b612c275760405162461bcd60e51b815260206004820152602d60248201527f455243313936373a206e657720696d706c656d656e746174696f6e206973206e60448201526c1bdd08184818dbdb9d1c9858dd609a1b6064820152608401610a91565b60008051602061425b83398151915280546001600160a01b0319166001600160a01b0392909216919091179055565b612c5f83613185565b600082511180612c6c5750805b15610d5857611c168383612506565b6101945460ff16610f9e5760405162461bcd60e51b815260206004820152601460248201527314185d5cd8589b194e881b9bdd081c185d5cd95960621b6044820152606401610a91565b6060600080856001600160a01b031685604051612ce29190614211565b600060405180830381855af49150503d8060008114612d1d576040519150601f19603f3d011682016040523d82523d6000602084013e612d22565b606091505b5091509150612d33868383876131c5565b9695505050505050565b6000612d92826040518060400160405280602081526020017f5361666545524332303a206c6f772d6c6576656c2063616c6c206661696c6564815250856001600160a01b031661323e9092919063ffffffff16565b9050805160001480612db3575080806020019051810190612db39190613ca7565b610d585760405162461bcd60e51b815260206004820152602a60248201527f5361666545524332303a204552433230206f7065726174696f6e20646964206e6044820152691bdd081cdd58d8d9595960b21b6064820152608401610a91565b6001600160a01b03811660009081526099602052604090208054600181018255905b50919050565b6000610bf4612e47611ed8565b8360405161190160f01b8152600281019290925260228201526042902090565b6000806000612e788787878761324d565b91509150612e8581613311565b5095945050505050565b600054610100900460ff16612eb65760405162461bcd60e51b8152600401610a9190614151565b6036612ec28382614091565b506037610d588282614091565b600054610100900460ff16612ef65760405162461bcd60e51b8152600401610a9190614151565b6067612f028382614091565b506068612f0f8282614091565b50506000606581905560665550565b600054610100900460ff16612f455760405162461bcd60e51b8152600401610a9190614151565b610f9e61345b565b6060610bf46001600160a01b03831660145b60606000612f6e836002613f69565b612f79906002613f99565b67ffffffffffffffff811115612f9157612f91613737565b6040519080825280601f01601f191660200182016040528015612fbb576020820181803683370190505b509050600360fc1b81600081518110612fd657612fd6613d95565b60200101906001600160f81b031916908160001a905350600f60fb1b8160018151811061300557613005613d95565b60200101906001600160f81b031916908160001a9053506000613029846002613f69565b613034906001613f99565b90505b60018111156130ac576f181899199a1a9b1b9c1cb0b131b232b360811b85600f166010811061306857613068613d95565b1a60f81b82828151811061307e5761307e613d95565b60200101906001600160f81b031916908160001a90535060049490941c936130a58161422d565b9050613037565b508315610e035760405162461bcd60e51b815260206004820181905260248201527f537472696e67733a20686578206c656e67746820696e73756666696369656e746044820152606401610a91565b60008061310661245f565b80519091501561311d578051602090910120919050565b606554801561312c5792915050565b7fc5d2460186f7233c927e7db2dcc703c0e500b653ca82273b7bfad8045d85a4709250505090565b60008061315f61246e565b805190915015613176578051602090910120919050565b606654801561312c5792915050565b61318e81612bba565b6040516001600160a01b038216907fbc7cd75a20ee27fd9adebab32041f755214dbc6bffa90cc0225b39da2e5c2d3b90600090a250565b6060831561323457825160000361322d576001600160a01b0385163b61322d5760405162461bcd60e51b815260206004820152601d60248201527f416464726573733a2063616c6c20746f206e6f6e2d636f6e74726163740000006044820152606401610a91565b5081610e2d565b610e2d838361348f565b6060610e2d84846000856134b9565b6000807f7fffffffffffffffffffffffffffffff5d576e7357a4501ddfe92f46681b20a08311156132845750600090506003613308565b6040805160008082526020820180845289905260ff881692820192909252606081018690526080810185905260019060a0016020604051602081039080840390855afa1580156132d8573d6000803e3d6000fd5b5050604051601f1901519150506001600160a01b03811661330157600060019250925050613308565b9150600090505b94509492505050565b600081600481111561332557613325614244565b0361332d5750565b600181600481111561334157613341614244565b0361338e5760405162461bcd60e51b815260206004820152601860248201527f45434453413a20696e76616c6964207369676e617475726500000000000000006044820152606401610a91565b60028160048111156133a2576133a2614244565b036133ef5760405162461bcd60e51b815260206004820152601f60248201527f45434453413a20696e76616c6964207369676e6174757265206c656e677468006044820152606401610a91565b600381600481111561340357613403614244565b03610e465760405162461bcd60e51b815260206004820152602260248201527f45434453413a20696e76616c6964207369676e6174757265202773272076616c604482015261756560f01b6064820152608401610a91565b600054610100900460ff166134825760405162461bcd60e51b8152600401610a9190614151565b610194805460ff19169055565b81511561349f5781518083602001fd5b8060405162461bcd60e51b8152600401610a919190613688565b60608247101561351a5760405162461bcd60e51b815260206004820152602660248201527f416464726573733a20696e73756666696369656e742062616c616e636520666f6044820152651c8818d85b1b60d21b6064820152608401610a91565b600080866001600160a01b031685876040516135369190614211565b60006040518083038185875af1925050503d8060008114613573576040519150601f19603f3d011682016040523d82523d6000602084013e613578565b606091505b5091509150613589878383876131c5565b979650505050505050565b6001600160a01b0381168114610e4657600080fd5b600080604083850312156135bc57600080fd5b82356135c781613594565b915060208301356135d781613594565b809150509250929050565b6000602082840312156135f457600080fd5b81356001600160e01b031981168114610e0357600080fd5b6000806040838503121561361f57600080fd5b823561362a81613594565b946020939093013593505050565b60005b8381101561365357818101518382015260200161363b565b50506000910152565b60008151808452613674816020860160208601613638565b601f01601f19169290920160200192915050565b602081526000610e03602083018461365c565b6000806000606084860312156136b057600080fd5b83356136bb81613594565b925060208401356136cb81613594565b929592945050506040919091013590565b6000602082840312156136ee57600080fd5b5035919050565b60006020828403121561370757600080fd5b8135610e0381613594565b6000806040838503121561372557600080fd5b8235915060208301356135d781613594565b634e487b7160e01b600052604160045260246000fd5b600067ffffffffffffffff8084111561376857613768613737565b604051601f8501601f19908116603f0116810190828211818310171561379057613790613737565b816040528093508581528686860111156137a957600080fd5b858560208301376000602087830101525050509392505050565b600080604083850312156137d657600080fd5b82356137e181613594565b9150602083013567ffffffffffffffff8111156137fd57600080fd5b8301601f8101851361380e57600080fd5b61381d8582356020840161374d565b9150509250929050565b6000806020838503121561383a57600080fd5b823567ffffffffffffffff8082111561385257600080fd5b818501915085601f83011261386657600080fd5b81358181111561387557600080fd5b86602082850101111561388757600080fd5b60209290920196919550909350505050565b60ff60f81b881681526000602060e0818401526138b960e084018a61365c565b83810360408501526138cb818a61365c565b606085018990526001600160a01b038816608086015260a0850187905284810360c0860152855180825283870192509083019060005b8181101561391d57835183529284019291840191600101613901565b50909c9b505050505050505050505050565b6000806020838503121561394257600080fd5b823567ffffffffffffffff8082111561395a57600080fd5b818501915085601f83011261396e57600080fd5b81358181111561397d57600080fd5b8660208260051b850101111561388757600080fd5b6000602080830181845280855180835260408601915060408160051b870101925083870160005b828110156139e757603f198886030184526139d585835161365c565b945092850192908501906001016139b9565b5092979650505050505050565b600082601f830112613a0557600080fd5b610e038383356020850161374d565b600080600080600080600060e0888a031215613a2f57600080fd5b873567ffffffffffffffff80821115613a4757600080fd5b613a538b838c016139f4565b985060208a0135915080821115613a6957600080fd5b50613a768a828b016139f4565b9650506040880135613a8781613594565b94506060880135613a9781613594565b93506080880135613aa781613594565b925060a0880135613ab781613594565b915060c0880135613ac781613594565b8091505092959891949750929550565b600080600080600080600060e0888a031215613af257600080fd5b8735613afd81613594565b96506020880135613b0d81613594565b95506040880135945060608801359350608088013560ff81168114613b3157600080fd5b9699959850939692959460a0840135945060c09093013592915050565b600080600080600060a08688031215613b6657600080fd5b853567ffffffffffffffff80821115613b7e57600080fd5b613b8a89838a016139f4565b96506020880135915080821115613ba057600080fd5b50613bad888289016139f4565b9450506040860135613bbe81613594565b92506060860135613bce81613594565b91506080860135613bde81613594565b809150509295509295909350565b805169ffffffffffffffffffff81168114613c0657600080fd5b919050565b600080600080600060a08688031215613c2357600080fd5b613c2c86613bec565b9450602086015193506040860151925060608601519150613c4f60808701613bec565b90509295509295909350565b6001600160a01b0385811682528416602082015260606040820181905281018290526000828460808401376000608084840101526080601f19601f850116830101905095945050505050565b600060208284031215613cb957600080fd5b81518015158114610e0357600080fd5b600181811c90821680613cdd57607f821691505b602082108103612e3457634e487b7160e01b600052602260045260246000fd5b6020808252602c908201527f46756e6374696f6e206d7573742062652063616c6c6564207468726f7567682060408201526b19195b1959d85d1958d85b1b60a21b606082015260800190565b6020808252602c908201527f46756e6374696f6e206d7573742062652063616c6c6564207468726f7567682060408201526b6163746976652070726f787960a01b606082015260800190565b634e487b7160e01b600052603260045260246000fd5b6000808335601e19843603018112613dc257600080fd5b83018035915067ffffffffffffffff821115613ddd57600080fd5b602001915036819003821315613df257600080fd5b9250929050565b634e487b7160e01b600052601160045260246000fd5b600060018201613e2157613e21613df9565b5060010190565b6020808252602e908201527f496e697469616c697a61626c653a20636f6e747261637420697320616c72656160408201526d191e481a5b9a5d1a585b1a5e995960921b606082015260800190565b600181815b80851115613eb1578160001904821115613e9757613e97613df9565b80851615613ea457918102915b93841c9390800290613e7b565b509250929050565b600082613ec857506001610bf4565b81613ed557506000610bf4565b8160018114613eeb5760028114613ef557613f11565b6001915050610bf4565b60ff841115613f0657613f06613df9565b50506001821b610bf4565b5060208310610133831016604e8410600b8410161715613f34575081810a610bf4565b613f3e8383613e76565b8060001904821115613f5257613f52613df9565b029392505050565b6000610e0360ff841683613eb9565b8082028115828204841417610bf457610bf4613df9565b600060208284031215613f9257600080fd5b5051919050565b80820180821115610bf457610bf4613df9565b604081526000808454613fbe81613cc9565b8060408601526060600180841660008114613fe05760018114613ffa5761402b565b60ff1985168884015283151560051b88018301955061402b565b8960005260208060002060005b868110156140225781548b8201870152908401908201614007565b8a018501975050505b50505050508281036020840152614042818561365c565b95945050505050565b601f821115610d5857600081815260208120601f850160051c810160208610156140725750805b601f850160051c820191505b818110156119565782815560010161407e565b815167ffffffffffffffff8111156140ab576140ab613737565b6140bf816140b98454613cc9565b8461404b565b602080601f8311600181146140f457600084156140dc5750858301515b600019600386901b1c1916600185901b178555611956565b600085815260208120601f198616915b8281101561412357888601518255948401946001909101908401614104565b50858210156141415787850151600019600388901b60f8161c191681555b5050505050600190811b01905550565b6020808252602b908201527f496e697469616c697a61626c653a20636f6e7472616374206973206e6f74206960408201526a6e697469616c697a696e6760a81b606082015260800190565b7f416363657373436f6e74726f6c3a206163636f756e74200000000000000000008152600083516141d4816017850160208801613638565b7001034b99036b4b9b9b4b733903937b6329607d1b6017918401918201528351614205816028840160208801613638565b01602801949350505050565b60008251614223818460208701613638565b9190910192915050565b60008161423c5761423c613df9565b506000190190565b634e487b7160e01b600052602160045260246000fdfe360894a13ba1a3210667c828492db98dca3e2076cc3735a920a3ca505d382bbc416464726573733a206c6f772d6c6576656c2064656c65676174652063616c6c206661696c6564a2646970667358221220dd0a1bdf42b3bd42352e698f6aa55b2912a22b3d55709776cc63cc739c39047d64736f6c63430008140033",
  "linkReferences": {},
  "deployedLinkReferences": {}
}